{
  "contractName": "BookStore",
  "abi": [
    {
      "inputs": [],
      "stateMutability": "nonpayable",
      "type": "constructor"
    },
    {
      "anonymous": false,
      "inputs": [
        {
          "indexed": true,
          "internalType": "address",
          "name": "owner",
          "type": "address"
        },
        {
          "indexed": true,
          "internalType": "address",
          "name": "approved",
          "type": "address"
        },
        {
          "indexed": true,
          "internalType": "uint256",
          "name": "tokenId",
          "type": "uint256"
        }
      ],
      "name": "Approval",
      "type": "event"
    },
    {
      "anonymous": false,
      "inputs": [
        {
          "indexed": true,
          "internalType": "address",
          "name": "owner",
          "type": "address"
        },
        {
          "indexed": true,
          "internalType": "address",
          "name": "operator",
          "type": "address"
        },
        {
          "indexed": false,
          "internalType": "bool",
          "name": "approved",
          "type": "bool"
        }
      ],
      "name": "ApprovalForAll",
      "type": "event"
    },
    {
      "anonymous": false,
      "inputs": [
        {
          "indexed": true,
          "internalType": "address",
          "name": "previousOwner",
          "type": "address"
        },
        {
          "indexed": true,
          "internalType": "address",
          "name": "newOwner",
          "type": "address"
        }
      ],
      "name": "OwnershipTransferred",
      "type": "event"
    },
    {
      "anonymous": false,
      "inputs": [
        {
          "indexed": true,
          "internalType": "address",
          "name": "from",
          "type": "address"
        },
        {
          "indexed": true,
          "internalType": "address",
          "name": "to",
          "type": "address"
        },
        {
          "indexed": true,
          "internalType": "uint256",
          "name": "tokenId",
          "type": "uint256"
        }
      ],
      "name": "Transfer",
      "type": "event"
    },
    {
      "inputs": [
        {
          "internalType": "address",
          "name": "to",
          "type": "address"
        },
        {
          "internalType": "uint256",
          "name": "tokenId",
          "type": "uint256"
        }
      ],
      "name": "approve",
      "outputs": [],
      "stateMutability": "nonpayable",
      "type": "function"
    },
    {
      "inputs": [
        {
          "internalType": "address",
          "name": "owner",
          "type": "address"
        }
      ],
      "name": "balanceOf",
      "outputs": [
        {
          "internalType": "uint256",
          "name": "",
          "type": "uint256"
        }
      ],
      "stateMutability": "view",
      "type": "function",
      "constant": true
    },
    {
      "inputs": [
        {
          "internalType": "uint256",
          "name": "tokenId",
          "type": "uint256"
        }
      ],
      "name": "getApproved",
      "outputs": [
        {
          "internalType": "address",
          "name": "",
          "type": "address"
        }
      ],
      "stateMutability": "view",
      "type": "function",
      "constant": true
    },
    {
      "inputs": [
        {
          "internalType": "address",
          "name": "owner",
          "type": "address"
        },
        {
          "internalType": "address",
          "name": "operator",
          "type": "address"
        }
      ],
      "name": "isApprovedForAll",
      "outputs": [
        {
          "internalType": "bool",
          "name": "",
          "type": "bool"
        }
      ],
      "stateMutability": "view",
      "type": "function",
      "constant": true
    },
    {
      "inputs": [],
      "name": "name",
      "outputs": [
        {
          "internalType": "string",
          "name": "",
          "type": "string"
        }
      ],
      "stateMutability": "view",
      "type": "function",
      "constant": true
    },
    {
      "inputs": [],
      "name": "owner",
      "outputs": [
        {
          "internalType": "address",
          "name": "",
          "type": "address"
        }
      ],
      "stateMutability": "view",
      "type": "function",
      "constant": true
    },
    {
      "inputs": [
        {
          "internalType": "uint256",
          "name": "tokenId",
          "type": "uint256"
        }
      ],
      "name": "ownerOf",
      "outputs": [
        {
          "internalType": "address",
          "name": "",
          "type": "address"
        }
      ],
      "stateMutability": "view",
      "type": "function",
      "constant": true
    },
    {
      "inputs": [],
      "name": "renounceOwnership",
      "outputs": [],
      "stateMutability": "nonpayable",
      "type": "function"
    },
    {
      "inputs": [
        {
          "internalType": "address",
          "name": "from",
          "type": "address"
        },
        {
          "internalType": "address",
          "name": "to",
          "type": "address"
        },
        {
          "internalType": "uint256",
          "name": "tokenId",
          "type": "uint256"
        }
      ],
      "name": "safeTransferFrom",
      "outputs": [],
      "stateMutability": "nonpayable",
      "type": "function"
    },
    {
      "inputs": [
        {
          "internalType": "address",
          "name": "from",
          "type": "address"
        },
        {
          "internalType": "address",
          "name": "to",
          "type": "address"
        },
        {
          "internalType": "uint256",
          "name": "tokenId",
          "type": "uint256"
        },
        {
          "internalType": "bytes",
          "name": "_data",
          "type": "bytes"
        }
      ],
      "name": "safeTransferFrom",
      "outputs": [],
      "stateMutability": "nonpayable",
      "type": "function"
    },
    {
      "inputs": [
        {
          "internalType": "address",
          "name": "operator",
          "type": "address"
        },
        {
          "internalType": "bool",
          "name": "approved",
          "type": "bool"
        }
      ],
      "name": "setApprovalForAll",
      "outputs": [],
      "stateMutability": "nonpayable",
      "type": "function"
    },
    {
      "inputs": [
        {
          "internalType": "bytes4",
          "name": "interfaceId",
          "type": "bytes4"
        }
      ],
      "name": "supportsInterface",
      "outputs": [
        {
          "internalType": "bool",
          "name": "",
          "type": "bool"
        }
      ],
      "stateMutability": "view",
      "type": "function",
      "constant": true
    },
    {
      "inputs": [],
      "name": "symbol",
      "outputs": [
        {
          "internalType": "string",
          "name": "",
          "type": "string"
        }
      ],
      "stateMutability": "view",
      "type": "function",
      "constant": true
    },
    {
      "inputs": [
        {
          "internalType": "address",
          "name": "from",
          "type": "address"
        },
        {
          "internalType": "address",
          "name": "to",
          "type": "address"
        },
        {
          "internalType": "uint256",
          "name": "tokenId",
          "type": "uint256"
        }
      ],
      "name": "transferFrom",
      "outputs": [],
      "stateMutability": "nonpayable",
      "type": "function"
    },
    {
      "inputs": [
        {
          "internalType": "address",
          "name": "newOwner",
          "type": "address"
        }
      ],
      "name": "transferOwnership",
      "outputs": [],
      "stateMutability": "nonpayable",
      "type": "function"
    },
    {
      "inputs": [
        {
          "internalType": "address",
          "name": "_storeFrontAddress",
          "type": "address"
        }
      ],
      "name": "setStoreFront",
      "outputs": [],
      "stateMutability": "nonpayable",
      "type": "function"
    },
    {
      "inputs": [
        {
          "internalType": "uint256",
          "name": "_price",
          "type": "uint256"
        },
        {
          "internalType": "string",
          "name": "_uri",
          "type": "string"
        }
      ],
      "name": "publish",
      "outputs": [],
      "stateMutability": "nonpayable",
      "type": "function"
    },
    {
      "inputs": [
        {
          "internalType": "address",
          "name": "_buyer",
          "type": "address"
        },
        {
          "internalType": "uint256",
          "name": "_bookVersionId",
          "type": "uint256"
        }
      ],
      "name": "transferFromAuthor",
      "outputs": [],
      "stateMutability": "nonpayable",
      "type": "function"
    },
    {
      "inputs": [
        {
          "internalType": "uint256",
          "name": "_bookVersionId",
          "type": "uint256"
        }
      ],
      "name": "tokenURI",
      "outputs": [
        {
          "internalType": "string",
          "name": "",
          "type": "string"
        }
      ],
      "stateMutability": "view",
      "type": "function",
      "constant": true
    },
    {
      "inputs": [
        {
          "internalType": "uint256",
          "name": "_bookVersionId",
          "type": "uint256"
        }
      ],
      "name": "bookVersionPrice",
      "outputs": [
        {
          "internalType": "uint256",
          "name": "",
          "type": "uint256"
        }
      ],
      "stateMutability": "view",
      "type": "function",
      "constant": true
    },
    {
      "inputs": [
        {
          "internalType": "uint256",
          "name": "_bookVersionId",
          "type": "uint256"
        }
      ],
      "name": "bookVersionAuthor",
      "outputs": [
        {
          "internalType": "address payable",
          "name": "",
          "type": "address"
        }
      ],
      "stateMutability": "view",
      "type": "function",
      "constant": true
    },
    {
      "inputs": [],
      "name": "tokenCount",
      "outputs": [
        {
          "internalType": "uint256",
          "name": "",
          "type": "uint256"
        }
      ],
      "stateMutability": "view",
      "type": "function",
      "constant": true
    }
  ],
  "bytecode": "0x60806040523480156200001157600080fd5b506040518060400160405280600981526020017f426f6f6b53746f726500000000000000000000000000000000000000000000008152506040518060400160405280600281526020017f424b000000000000000000000000000000000000000000000000000000000000815250816000908051906020019062000096929190620001e7565b508060019080519060200190620000af929190620001e7565b505050620000d2620000c66200011960201b60201c565b6200012160201b60201c565b33600c60006101000a81548173ffffffffffffffffffffffffffffffffffffffff021916908373ffffffffffffffffffffffffffffffffffffffff160217905550620002fc565b600033905090565b6000600760009054906101000a900473ffffffffffffffffffffffffffffffffffffffff16905081600760006101000a81548173ffffffffffffffffffffffffffffffffffffffff021916908373ffffffffffffffffffffffffffffffffffffffff1602179055508173ffffffffffffffffffffffffffffffffffffffff168173ffffffffffffffffffffffffffffffffffffffff167f8be0079c531659141344cd1fd0a4f28419497f9722a3daafe3b4186f6b6457e060405160405180910390a35050565b828054620001f59062000297565b90600052602060002090601f01602090048101928262000219576000855562000265565b82601f106200023457805160ff191683800117855562000265565b8280016001018555821562000265579182015b828111156200026457825182559160200191906001019062000247565b5b50905062000274919062000278565b5090565b5b808211156200029357600081600090555060010162000279565b5090565b60006002820490506001821680620002b057607f821691505b60208210811415620002c757620002c6620002cd565b5b50919050565b7f4e487b7100000000000000000000000000000000000000000000000000000000600052602260045260246000fd5b612faf806200030c6000396000f3fe608060405234801561001057600080fd5b50600436106101425760003560e01c80638b710ab0116100b8578063b88d4fde1161007c578063b88d4fde1461034d578063c87b56dd14610369578063d05aa68b14610399578063d2e18f32146103c9578063e985e9c5146103f9578063f2fde38b1461042957610142565b80638b710ab0146102bb5780638da5cb5b146102d757806395d89b41146102f55780639f181b5e14610313578063a22cb4651461033157610142565b806323b872dd1161010a57806323b872dd146101fd57806330c4dff21461021957806342842e0e146102355780636352211e1461025157806370a0823114610281578063715018a6146102b157610142565b806301ffc9a7146101475780630560c7a81461017757806306fdde0314610193578063081812fc146101b1578063095ea7b3146101e1575b600080fd5b610161600480360381019061015c9190612081565b610445565b60405161016e919061297a565b60405180910390f35b610191600480360381019061018c91906120fc565b610527565b005b61019b610613565b6040516101a89190612995565b60405180910390f35b6101cb60048036038101906101c691906120d3565b6106a5565b6040516101d891906128f8565b60405180910390f35b6101fb60048036038101906101f69190612045565b61072a565b005b61021760048036038101906102129190611f3f565b610842565b005b610233600480360381019061022e9190611eda565b6108a2565b005b61024f600480360381019061024a9190611f3f565b6109b7565b005b61026b600480360381019061026691906120d3565b6109d7565b60405161027891906128f8565b60405180910390f35b61029b60048036038101906102969190611eda565b610a89565b6040516102a89190612c17565b60405180910390f35b6102b9610b41565b005b6102d560048036038101906102d09190612045565b610bc9565b005b6102df610c80565b6040516102ec91906128f8565b60405180910390f35b6102fd610caa565b60405161030a9190612995565b60405180910390f35b61031b610d3c565b6040516103289190612c17565b60405180910390f35b61034b60048036038101906103469190612009565b610d4d565b005b61036760048036038101906103629190611f8e565b610d63565b005b610383600480360381019061037e91906120d3565b610dc5565b6040516103909190612995565b60405180910390f35b6103b360048036038101906103ae91906120d3565b610eb5565b6040516103c09190612c17565b60405180910390f35b6103e360048036038101906103de91906120d3565b610ed5565b6040516103f09190612913565b60405180910390f35b610413600480360381019061040e9190611f03565b610f15565b604051610420919061297a565b60405180910390f35b610443600480360381019061043e9190611eda565b610fa9565b005b60007f80ac58cd000000000000000000000000000000000000000000000000000000007bffffffffffffffffffffffffffffffffffffffffffffffffffffffff1916827bffffffffffffffffffffffffffffffffffffffffffffffffffffffff1916148061051057507f5b5e139f000000000000000000000000000000000000000000000000000000007bffffffffffffffffffffffffffffffffffffffffffffffffffffffff1916827bffffffffffffffffffffffffffffffffffffffffffffffffffffffff1916145b80610520575061051f826110a1565b5b9050919050565b6000610533600861110b565b905061053f3383611119565b60405180608001604052808281526020018481526020013373ffffffffffffffffffffffffffffffffffffffff1681526020018381525060096000838152602001908152602001600020600082015181600001556020820151816001015560408201518160020160006101000a81548173ffffffffffffffffffffffffffffffffffffffff021916908373ffffffffffffffffffffffffffffffffffffffff1602179055506060820151816003019080519060200190610600929190611cfe565b5090505061060e6008611140565b505050565b60606000805461062290612e4d565b80601f016020809104026020016040519081016040528092919081815260200182805461064e90612e4d565b801561069b5780601f106106705761010080835404028352916020019161069b565b820191906000526020600020905b81548152906001019060200180831161067e57829003601f168201915b5050505050905090565b60006106b082611156565b6106ef576040517f08c379a00000000000000000000000000000000000000000000000000000000081526004016106e690612b77565b60405180910390fd5b6004600083815260200190815260200160002060009054906101000a900473ffffffffffffffffffffffffffffffffffffffff169050919050565b6000610735826109d7565b90508073ffffffffffffffffffffffffffffffffffffffff168373ffffffffffffffffffffffffffffffffffffffff1614156107a6576040517f08c379a000000000000000000000000000000000000000000000000000000000815260040161079d90612bd7565b60405180910390fd5b8073ffffffffffffffffffffffffffffffffffffffff166107c56111c2565b73ffffffffffffffffffffffffffffffffffffffff1614806107f457506107f3816107ee6111c2565b610f15565b5b610833576040517f08c379a000000000000000000000000000000000000000000000000000000000815260040161082a90612ab7565b60405180910390fd5b61083d83836111ca565b505050565b61085361084d6111c2565b82611283565b610892576040517f08c379a000000000000000000000000000000000000000000000000000000000815260040161088990612bf7565b60405180910390fd5b61089d838383611361565b505050565b600c60009054906101000a900473ffffffffffffffffffffffffffffffffffffffff1673ffffffffffffffffffffffffffffffffffffffff163373ffffffffffffffffffffffffffffffffffffffff1614610932576040517f08c379a000000000000000000000000000000000000000000000000000000000815260040161092990612bb7565b60405180910390fd5b80600a60006101000a81548173ffffffffffffffffffffffffffffffffffffffff021916908373ffffffffffffffffffffffffffffffffffffffff16021790555080600b60006101000a81548173ffffffffffffffffffffffffffffffffffffffff021916908373ffffffffffffffffffffffffffffffffffffffff16021790555050565b6109d283838360405180602001604052806000815250610d63565b505050565b6000806002600084815260200190815260200160002060009054906101000a900473ffffffffffffffffffffffffffffffffffffffff169050600073ffffffffffffffffffffffffffffffffffffffff168173ffffffffffffffffffffffffffffffffffffffff161415610a80576040517f08c379a0000000000000000000000000000000000000000000000000000000008152600401610a7790612af7565b60405180910390fd5b80915050919050565b60008073ffffffffffffffffffffffffffffffffffffffff168273ffffffffffffffffffffffffffffffffffffffff161415610afa576040517f08c379a0000000000000000000000000000000000000000000000000000000008152600401610af190612ad7565b60405180910390fd5b600360008373ffffffffffffffffffffffffffffffffffffffff1673ffffffffffffffffffffffffffffffffffffffff168152602001908152602001600020549050919050565b610b496111c2565b73ffffffffffffffffffffffffffffffffffffffff16610b67610c80565b73ffffffffffffffffffffffffffffffffffffffff1614610bbd576040517f08c379a0000000000000000000000000000000000000000000000000000000008152600401610bb490612b97565b60405180910390fd5b610bc760006115c8565b565b600a60009054906101000a900473ffffffffffffffffffffffffffffffffffffffff1673ffffffffffffffffffffffffffffffffffffffff163373ffffffffffffffffffffffffffffffffffffffff1614610c59576040517f08c379a0000000000000000000000000000000000000000000000000000000008152600401610c50906129b7565b60405180910390fd5b610c7c610c65826109d7565b838360405180602001604052806000815250610d63565b5050565b6000600760009054906101000a900473ffffffffffffffffffffffffffffffffffffffff16905090565b606060018054610cb990612e4d565b80601f0160208091040260200160405190810160405280929190818152602001828054610ce590612e4d565b8015610d325780601f10610d0757610100808354040283529160200191610d32565b820191906000526020600020905b815481529060010190602001808311610d1557829003601f168201915b5050505050905090565b6000610d48600861110b565b905090565b610d5f610d586111c2565b838361168e565b5050565b610d74610d6e6111c2565b83611283565b610db3576040517f08c379a0000000000000000000000000000000000000000000000000000000008152600401610daa90612bf7565b60405180910390fd5b610dbf848484846117fb565b50505050565b6060610dd082611156565b610e0f576040517f08c379a0000000000000000000000000000000000000000000000000000000008152600401610e0690612b57565b60405180910390fd5b600960008381526020019081526020016000206003018054610e3090612e4d565b80601f0160208091040260200160405190810160405280929190818152602001828054610e5c90612e4d565b8015610ea95780601f10610e7e57610100808354040283529160200191610ea9565b820191906000526020600020905b815481529060010190602001808311610e8c57829003601f168201915b50505050509050919050565b600060096000838152602001908152602001600020600101549050919050565b60006009600083815260200190815260200160002060020160009054906101000a900473ffffffffffffffffffffffffffffffffffffffff169050919050565b6000600560008473ffffffffffffffffffffffffffffffffffffffff1673ffffffffffffffffffffffffffffffffffffffff16815260200190815260200160002060008373ffffffffffffffffffffffffffffffffffffffff1673ffffffffffffffffffffffffffffffffffffffff16815260200190815260200160002060009054906101000a900460ff16905092915050565b610fb16111c2565b73ffffffffffffffffffffffffffffffffffffffff16610fcf610c80565b73ffffffffffffffffffffffffffffffffffffffff1614611025576040517f08c379a000000000000000000000000000000000000000000000000000000000815260040161101c90612b97565b60405180910390fd5b600073ffffffffffffffffffffffffffffffffffffffff168173ffffffffffffffffffffffffffffffffffffffff161415611095576040517f08c379a000000000000000000000000000000000000000000000000000000000815260040161108c906129f7565b60405180910390fd5b61109e816115c8565b50565b60007f01ffc9a7000000000000000000000000000000000000000000000000000000007bffffffffffffffffffffffffffffffffffffffffffffffffffffffff1916827bffffffffffffffffffffffffffffffffffffffffffffffffffffffff1916149050919050565b600081600001549050919050565b6000611125600861110b565b90506111318382611857565b61113b8183611875565b505050565b6001816000016000828254019250508190555050565b60008073ffffffffffffffffffffffffffffffffffffffff166002600084815260200190815260200160002060009054906101000a900473ffffffffffffffffffffffffffffffffffffffff1673ffffffffffffffffffffffffffffffffffffffff1614159050919050565b600033905090565b816004600083815260200190815260200160002060006101000a81548173ffffffffffffffffffffffffffffffffffffffff021916908373ffffffffffffffffffffffffffffffffffffffff160217905550808273ffffffffffffffffffffffffffffffffffffffff1661123d836109d7565b73ffffffffffffffffffffffffffffffffffffffff167f8c5be1e5ebec7d5bd14f71427d1e84f3dd0314c0f7b2291e5b200ac8c7c3b92560405160405180910390a45050565b600061128e82611156565b6112cd576040517f08c379a00000000000000000000000000000000000000000000000000000000081526004016112c490612a97565b60405180910390fd5b60006112d8836109d7565b90508073ffffffffffffffffffffffffffffffffffffffff168473ffffffffffffffffffffffffffffffffffffffff16148061131a57506113198185610f15565b5b8061135857508373ffffffffffffffffffffffffffffffffffffffff16611340846106a5565b73ffffffffffffffffffffffffffffffffffffffff16145b91505092915050565b8273ffffffffffffffffffffffffffffffffffffffff16611381826109d7565b73ffffffffffffffffffffffffffffffffffffffff16146113d7576040517f08c379a00000000000000000000000000000000000000000000000000000000081526004016113ce90612a17565b60405180910390fd5b600073ffffffffffffffffffffffffffffffffffffffff168273ffffffffffffffffffffffffffffffffffffffff161415611447576040517f08c379a000000000000000000000000000000000000000000000000000000000815260040161143e90612a57565b60405180910390fd5b6114528383836118e9565b61145d6000826111ca565b6001600360008573ffffffffffffffffffffffffffffffffffffffff1673ffffffffffffffffffffffffffffffffffffffff16815260200190815260200160002060008282546114ad9190612d51565b925050819055506001600360008473ffffffffffffffffffffffffffffffffffffffff1673ffffffffffffffffffffffffffffffffffffffff16815260200190815260200160002060008282546115049190612cfb565b92505081905550816002600083815260200190815260200160002060006101000a81548173ffffffffffffffffffffffffffffffffffffffff021916908373ffffffffffffffffffffffffffffffffffffffff160217905550808273ffffffffffffffffffffffffffffffffffffffff168473ffffffffffffffffffffffffffffffffffffffff167fddf252ad1be2c89b69c2b068fc378daa952ba7f163c4a11628f55a4df523b3ef60405160405180910390a46115c38383836118ee565b505050565b6000600760009054906101000a900473ffffffffffffffffffffffffffffffffffffffff16905081600760006101000a81548173ffffffffffffffffffffffffffffffffffffffff021916908373ffffffffffffffffffffffffffffffffffffffff1602179055508173ffffffffffffffffffffffffffffffffffffffff168173ffffffffffffffffffffffffffffffffffffffff167f8be0079c531659141344cd1fd0a4f28419497f9722a3daafe3b4186f6b6457e060405160405180910390a35050565b8173ffffffffffffffffffffffffffffffffffffffff168373ffffffffffffffffffffffffffffffffffffffff1614156116fd576040517f08c379a00000000000000000000000000000000000000000000000000000000081526004016116f490612a77565b60405180910390fd5b80600560008573ffffffffffffffffffffffffffffffffffffffff1673ffffffffffffffffffffffffffffffffffffffff16815260200190815260200160002060008473ffffffffffffffffffffffffffffffffffffffff1673ffffffffffffffffffffffffffffffffffffffff16815260200190815260200160002060006101000a81548160ff0219169083151502179055508173ffffffffffffffffffffffffffffffffffffffff168373ffffffffffffffffffffffffffffffffffffffff167f17307eab39ab6107e8899845ad3d59bd9653f200f220920489ca2b5937696c31836040516117ee919061297a565b60405180910390a3505050565b611806848484611361565b611812848484846118f3565b611851576040517f08c379a0000000000000000000000000000000000000000000000000000000008152600401611848906129d7565b60405180910390fd5b50505050565b611871828260405180602001604052806000815250611a8a565b5050565b61187e82611156565b6118bd576040517f08c379a00000000000000000000000000000000000000000000000000000000081526004016118b490612b17565b60405180910390fd5b806006600084815260200190815260200160002090805190602001906118e4929190611cfe565b505050565b505050565b505050565b60006119148473ffffffffffffffffffffffffffffffffffffffff16611ae5565b15611a7d578373ffffffffffffffffffffffffffffffffffffffff1663150b7a0261193d6111c2565b8786866040518563ffffffff1660e01b815260040161195f949392919061292e565b602060405180830381600087803b15801561197957600080fd5b505af19250505080156119aa57506040513d601f19601f820116820180604052508101906119a791906120aa565b60015b611a2d573d80600081146119da576040519150601f19603f3d011682016040523d82523d6000602084013e6119df565b606091505b50600081511415611a25576040517f08c379a0000000000000000000000000000000000000000000000000000000008152600401611a1c906129d7565b60405180910390fd5b805181602001fd5b63150b7a0260e01b7bffffffffffffffffffffffffffffffffffffffffffffffffffffffff1916817bffffffffffffffffffffffffffffffffffffffffffffffffffffffff191614915050611a82565b600190505b949350505050565b611a948383611b24565b611aa160008484846118f3565b611ae0576040517f08c379a0000000000000000000000000000000000000000000000000000000008152600401611ad7906129d7565b60405180910390fd5b505050565b6000808273ffffffffffffffffffffffffffffffffffffffff16803b806020016040519081016040528181526000908060200190933c51119050919050565b600073ffffffffffffffffffffffffffffffffffffffff168273ffffffffffffffffffffffffffffffffffffffff161415611b94576040517f08c379a0000000000000000000000000000000000000000000000000000000008152600401611b8b90612b37565b60405180910390fd5b611b9d81611156565b15611bdd576040517f08c379a0000000000000000000000000000000000000000000000000000000008152600401611bd490612a37565b60405180910390fd5b611be9600083836118e9565b6001600360008473ffffffffffffffffffffffffffffffffffffffff1673ffffffffffffffffffffffffffffffffffffffff1681526020019081526020016000206000828254611c399190612cfb565b92505081905550816002600083815260200190815260200160002060006101000a81548173ffffffffffffffffffffffffffffffffffffffff021916908373ffffffffffffffffffffffffffffffffffffffff160217905550808273ffffffffffffffffffffffffffffffffffffffff16600073ffffffffffffffffffffffffffffffffffffffff167fddf252ad1be2c89b69c2b068fc378daa952ba7f163c4a11628f55a4df523b3ef60405160405180910390a4611cfa600083836118ee565b5050565b828054611d0a90612e4d565b90600052602060002090601f016020900481019282611d2c5760008555611d73565b82601f10611d4557805160ff1916838001178555611d73565b82800160010185558215611d73579182015b82811115611d72578251825591602001919060010190611d57565b5b509050611d809190611d84565b5090565b5b80821115611d9d576000816000905550600101611d85565b5090565b6000611db4611daf84612c63565b612c32565b905082815260208101848484011115611dcc57600080fd5b611dd7848285612e0b565b509392505050565b6000611df2611ded84612c93565b612c32565b905082815260208101848484011115611e0a57600080fd5b611e15848285612e0b565b509392505050565b600081359050611e2c81612f1d565b92915050565b600081359050611e4181612f34565b92915050565b600081359050611e5681612f4b565b92915050565b600081519050611e6b81612f4b565b92915050565b600082601f830112611e8257600080fd5b8135611e92848260208601611da1565b91505092915050565b600082601f830112611eac57600080fd5b8135611ebc848260208601611ddf565b91505092915050565b600081359050611ed481612f62565b92915050565b600060208284031215611eec57600080fd5b6000611efa84828501611e1d565b91505092915050565b60008060408385031215611f1657600080fd5b6000611f2485828601611e1d565b9250506020611f3585828601611e1d565b9150509250929050565b600080600060608486031215611f5457600080fd5b6000611f6286828701611e1d565b9350506020611f7386828701611e1d565b9250506040611f8486828701611ec5565b9150509250925092565b60008060008060808587031215611fa457600080fd5b6000611fb287828801611e1d565b9450506020611fc387828801611e1d565b9350506040611fd487828801611ec5565b925050606085013567ffffffffffffffff811115611ff157600080fd5b611ffd87828801611e71565b91505092959194509250565b6000806040838503121561201c57600080fd5b600061202a85828601611e1d565b925050602061203b85828601611e32565b9150509250929050565b6000806040838503121561205857600080fd5b600061206685828601611e1d565b925050602061207785828601611ec5565b9150509250929050565b60006020828403121561209357600080fd5b60006120a184828501611e47565b91505092915050565b6000602082840312156120bc57600080fd5b60006120ca84828501611e5c565b91505092915050565b6000602082840312156120e557600080fd5b60006120f384828501611ec5565b91505092915050565b6000806040838503121561210f57600080fd5b600061211d85828601611ec5565b925050602083013567ffffffffffffffff81111561213a57600080fd5b61214685828601611e9b565b9150509250929050565b61215981612d97565b82525050565b61216881612d85565b82525050565b61217781612da9565b82525050565b600061218882612cc3565b6121928185612cd9565b93506121a2818560208601612e1a565b6121ab81612f0c565b840191505092915050565b60006121c182612cce565b6121cb8185612cea565b93506121db818560208601612e1a565b6121e481612f0c565b840191505092915050565b60006121fc603483612cea565b91507f4d6574686f642063616e206f6e6c792062652063616c6c65642066726f6d205360008301527f746f72652046726f6e7420636f6e74726163742e0000000000000000000000006020830152604082019050919050565b6000612262603283612cea565b91507f4552433732313a207472616e7366657220746f206e6f6e20455243373231526560008301527f63656976657220696d706c656d656e74657200000000000000000000000000006020830152604082019050919050565b60006122c8602683612cea565b91507f4f776e61626c653a206e6577206f776e657220697320746865207a65726f206160008301527f64647265737300000000000000000000000000000000000000000000000000006020830152604082019050919050565b600061232e602583612cea565b91507f4552433732313a207472616e736665722066726f6d20696e636f72726563742060008301527f6f776e65720000000000000000000000000000000000000000000000000000006020830152604082019050919050565b6000612394601c83612cea565b91507f4552433732313a20746f6b656e20616c7265616479206d696e746564000000006000830152602082019050919050565b60006123d4602483612cea565b91507f4552433732313a207472616e7366657220746f20746865207a65726f2061646460008301527f72657373000000000000000000000000000000000000000000000000000000006020830152604082019050919050565b600061243a601983612cea565b91507f4552433732313a20617070726f766520746f2063616c6c6572000000000000006000830152602082019050919050565b600061247a602c83612cea565b91507f4552433732313a206f70657261746f7220717565727920666f72206e6f6e657860008301527f697374656e7420746f6b656e00000000000000000000000000000000000000006020830152604082019050919050565b60006124e0603883612cea565b91507f4552433732313a20617070726f76652063616c6c6572206973206e6f74206f7760008301527f6e6572206e6f7220617070726f76656420666f7220616c6c00000000000000006020830152604082019050919050565b6000612546602a83612cea565b91507f4552433732313a2062616c616e636520717565727920666f7220746865207a6560008301527f726f2061646472657373000000000000000000000000000000000000000000006020830152604082019050919050565b60006125ac602983612cea565b91507f4552433732313a206f776e657220717565727920666f72206e6f6e657869737460008301527f656e7420746f6b656e00000000000000000000000000000000000000000000006020830152604082019050919050565b6000612612602e83612cea565b91507f45524337323155524953746f726167653a2055524920736574206f66206e6f6e60008301527f6578697374656e7420746f6b656e0000000000000000000000000000000000006020830152604082019050919050565b6000612678602083612cea565b91507f4552433732313a206d696e7420746f20746865207a65726f20616464726573736000830152602082019050919050565b60006126b8603183612cea565b91507f45524337323155524953746f726167653a2055524920717565727920666f722060008301527f6e6f6e6578697374656e7420746f6b656e0000000000000000000000000000006020830152604082019050919050565b600061271e602c83612cea565b91507f4552433732313a20617070726f76656420717565727920666f72206e6f6e657860008301527f697374656e7420746f6b656e00000000000000000000000000000000000000006020830152604082019050919050565b6000612784602083612cea565b91507f4f776e61626c653a2063616c6c6572206973206e6f7420746865206f776e65726000830152602082019050919050565b60006127c4603283612cea565b91507f426f6f6b53746f7265203a206f6e6c7920636f6e7472616374206f776e65722060008301527f63616e207365742073746f726566726f6e7400000000000000000000000000006020830152604082019050919050565b600061282a602183612cea565b91507f4552433732313a20617070726f76616c20746f2063757272656e74206f776e6560008301527f72000000000000000000000000000000000000000000000000000000000000006020830152604082019050919050565b6000612890603183612cea565b91507f4552433732313a207472616e736665722063616c6c6572206973206e6f74206f60008301527f776e6572206e6f7220617070726f7665640000000000000000000000000000006020830152604082019050919050565b6128f281612e01565b82525050565b600060208201905061290d600083018461215f565b92915050565b60006020820190506129286000830184612150565b92915050565b6000608082019050612943600083018761215f565b612950602083018661215f565b61295d60408301856128e9565b818103606083015261296f818461217d565b905095945050505050565b600060208201905061298f600083018461216e565b92915050565b600060208201905081810360008301526129af81846121b6565b905092915050565b600060208201905081810360008301526129d0816121ef565b9050919050565b600060208201905081810360008301526129f081612255565b9050919050565b60006020820190508181036000830152612a10816122bb565b9050919050565b60006020820190508181036000830152612a3081612321565b9050919050565b60006020820190508181036000830152612a5081612387565b9050919050565b60006020820190508181036000830152612a70816123c7565b9050919050565b60006020820190508181036000830152612a908161242d565b9050919050565b60006020820190508181036000830152612ab08161246d565b9050919050565b60006020820190508181036000830152612ad0816124d3565b9050919050565b60006020820190508181036000830152612af081612539565b9050919050565b60006020820190508181036000830152612b108161259f565b9050919050565b60006020820190508181036000830152612b3081612605565b9050919050565b60006020820190508181036000830152612b508161266b565b9050919050565b60006020820190508181036000830152612b70816126ab565b9050919050565b60006020820190508181036000830152612b9081612711565b9050919050565b60006020820190508181036000830152612bb081612777565b9050919050565b60006020820190508181036000830152612bd0816127b7565b9050919050565b60006020820190508181036000830152612bf08161281d565b9050919050565b60006020820190508181036000830152612c1081612883565b9050919050565b6000602082019050612c2c60008301846128e9565b92915050565b6000604051905081810181811067ffffffffffffffff82111715612c5957612c58612edd565b5b8060405250919050565b600067ffffffffffffffff821115612c7e57612c7d612edd565b5b601f19601f8301169050602081019050919050565b600067ffffffffffffffff821115612cae57612cad612edd565b5b601f19601f8301169050602081019050919050565b600081519050919050565b600081519050919050565b600082825260208201905092915050565b600082825260208201905092915050565b6000612d0682612e01565b9150612d1183612e01565b9250827fffffffffffffffffffffffffffffffffffffffffffffffffffffffffffffffff03821115612d4657612d45612e7f565b5b828201905092915050565b6000612d5c82612e01565b9150612d6783612e01565b925082821015612d7a57612d79612e7f565b5b828203905092915050565b6000612d9082612de1565b9050919050565b6000612da282612de1565b9050919050565b60008115159050919050565b60007fffffffff0000000000000000000000000000000000000000000000000000000082169050919050565b600073ffffffffffffffffffffffffffffffffffffffff82169050919050565b6000819050919050565b82818337600083830152505050565b60005b83811015612e38578082015181840152602081019050612e1d565b83811115612e47576000848401525b50505050565b60006002820490506001821680612e6557607f821691505b60208210811415612e7957612e78612eae565b5b50919050565b7f4e487b7100000000000000000000000000000000000000000000000000000000600052601160045260246000fd5b7f4e487b7100000000000000000000000000000000000000000000000000000000600052602260045260246000fd5b7f4e487b7100000000000000000000000000000000000000000000000000000000600052604160045260246000fd5b6000601f19601f8301169050919050565b612f2681612d85565b8114612f3157600080fd5b50565b612f3d81612da9565b8114612f4857600080fd5b50565b612f5481612db5565b8114612f5f57600080fd5b50565b612f6b81612e01565b8114612f7657600080fd5b5056fea264697066735822122088d32c789433483617eed961df6dc4a65748b2f05d652c25616aff24f9cbd4be64736f6c63430008000033",
  "immutableReferences": {},
  "source": "// SPDX-License-Identifier: MIT\r\npragma solidity ^0.8.0;\r\n\r\nimport \"@openzeppelin/contracts/token/ERC721/ERC721.sol\";\r\nimport \"@openzeppelin/contracts/token/ERC721/extensions/ERC721URIStorage.sol\";\r\nimport \"@openzeppelin/contracts/access/Ownable.sol\";\r\nimport \"@openzeppelin/contracts/utils/Counters.sol\";\r\n\r\nimport \"./StoreFront.sol\";\r\n\r\ncontract BookStore is ERC721, ERC721URIStorage, Ownable {\r\n    using Counters for Counters.Counter;\r\n\r\n    Counters.Counter private _currentBookVersionId;\r\n\r\n    mapping(uint256 => BookVersion) private _bookVersions;\r\n\r\n    StoreFront private _storeFront;\r\n    address private storeFrontAddress;\r\n    struct BookVersion {\r\n        uint256 id;\r\n        uint256 price;\r\n        address payable author;\r\n        string uri;\r\n        // TODO: wanna sell ?\r\n    }\r\n\r\n    address private _owner;\r\n\r\n    constructor() ERC721(\"BookStore\", \"BK\") {\r\n        _owner = msg.sender;\r\n    }\r\n\r\n    function setStoreFront(address _storeFrontAddress) public {\r\n        require(\r\n            msg.sender == _owner,\r\n            \"BookStore : only contract owner can set storefront\"\r\n        );\r\n        _storeFront = StoreFront(_storeFrontAddress);\r\n        storeFrontAddress = _storeFrontAddress;\r\n    }\r\n\r\n    //NOTE: account for number of decimals on various whitelisted currencies(!)\r\n    function safeMint(address to, string memory uri) private {\r\n        uint256 tokenId = _currentBookVersionId.current();\r\n        _safeMint(to, tokenId);\r\n        _setTokenURI(tokenId, uri);\r\n    }\r\n\r\n    function publish(\r\n        uint256 _price,\r\n        string memory _uri\r\n    ) public {\r\n        uint256 tokenId = _currentBookVersionId.current();\r\n        safeMint(msg.sender, _uri);\r\n        _bookVersions[tokenId] = BookVersion(\r\n            tokenId,\r\n            _price,\r\n            payable(msg.sender),\r\n            _uri\r\n        );\r\n        _currentBookVersionId.increment();\r\n    }\r\n\r\n    function transferFromAuthor(address _buyer, uint256 _bookVersionId) public {\r\n        require(\r\n            msg.sender == address(_storeFront),\r\n            \"Method can only be called from Store Front contract.\"\r\n        );\r\n        safeTransferFrom(ownerOf(_bookVersionId), _buyer, _bookVersionId, \"\");\r\n    }\r\n\r\n    function _burn(uint256 tokenId)\r\n        internal\r\n        override(ERC721, ERC721URIStorage)\r\n    {\r\n        super._burn(tokenId);\r\n    }\r\n\r\n    function tokenURI(uint256 _bookVersionId)\r\n        public\r\n        view\r\n        override(ERC721, ERC721URIStorage)\r\n        returns (string memory)\r\n    {\r\n        require(_exists(_bookVersionId), \"ERC721URIStorage: URI query for nonexistent token\");\r\n        return _bookVersions[_bookVersionId].uri;\r\n    }\r\n\r\n    function bookVersionPrice(uint256 _bookVersionId)\r\n        public\r\n        view\r\n        returns (uint256)\r\n    {\r\n        return _bookVersions[_bookVersionId].price;\r\n    }\r\n\r\n    function bookVersionAuthor(uint256 _bookVersionId)\r\n        public\r\n        view\r\n        returns (address payable)\r\n    {\r\n        return _bookVersions[_bookVersionId].author;\r\n    }\r\n    \r\n    function tokenCount()\r\n        public\r\n        view\r\n        returns (uint256)\r\n    {\r\n        return _currentBookVersionId.current();\r\n    }\r\n}\r\n",
  "sourcePath": "D:\\project\\app\\contracts\\BookStore.sol",
  "compiler": {
    "name": "solc",
    "version": "0.8.0+commit.c7dfd78e.Emscripten.clang"
  },
  "schemaVersion": "3.4.7",
  "updatedAt": "2022-05-12T07:56:14.540Z",
  "networkType": "ethereum",
  "devdoc": {
    "kind": "dev",
    "methods": {
      "approve(address,uint256)": {
        "details": "See {IERC721-approve}."
      },
      "balanceOf(address)": {
        "details": "See {IERC721-balanceOf}."
      },
      "getApproved(uint256)": {
        "details": "See {IERC721-getApproved}."
      },
      "isApprovedForAll(address,address)": {
        "details": "See {IERC721-isApprovedForAll}."
      },
      "name()": {
        "details": "See {IERC721Metadata-name}."
      },
      "owner()": {
        "details": "Returns the address of the current owner."
      },
      "ownerOf(uint256)": {
        "details": "See {IERC721-ownerOf}."
      },
      "renounceOwnership()": {
        "details": "Leaves the contract without owner. It will not be possible to call `onlyOwner` functions anymore. Can only be called by the current owner. NOTE: Renouncing ownership will leave the contract without an owner, thereby removing any functionality that is only available to the owner."
      },
      "safeTransferFrom(address,address,uint256)": {
        "details": "See {IERC721-safeTransferFrom}."
      },
      "safeTransferFrom(address,address,uint256,bytes)": {
        "details": "See {IERC721-safeTransferFrom}."
      },
      "setApprovalForAll(address,bool)": {
        "details": "See {IERC721-setApprovalForAll}."
      },
      "supportsInterface(bytes4)": {
        "details": "See {IERC165-supportsInterface}."
      },
      "symbol()": {
        "details": "See {IERC721Metadata-symbol}."
      },
      "transferFrom(address,address,uint256)": {
        "details": "See {IERC721-transferFrom}."
      },
      "transferOwnership(address)": {
        "details": "Transfers ownership of the contract to a new account (`newOwner`). Can only be called by the current owner."
      }
    },
    "version": 1
  },
  "userdoc": {
    "kind": "user",
    "methods": {},
    "version": 1
  }
}