{
  "contractName": "StoreFront",
  "abi": [
    {
      "inputs": [],
      "stateMutability": "nonpayable",
      "type": "constructor"
    },
    {
      "inputs": [
        {
          "internalType": "address",
          "name": "_bookStoreAddress",
          "type": "address"
        }
      ],
      "name": "setBookStore",
      "outputs": [],
      "stateMutability": "nonpayable",
      "type": "function"
    },
    {
      "inputs": [
        {
          "internalType": "uint256",
          "name": "_bookVersionId",
          "type": "uint256"
        }
      ],
      "name": "purchaseFromAuthor",
      "outputs": [],
      "stateMutability": "payable",
      "type": "function",
      "payable": true
    }
  ],
  "bytecode": "0x608060405234801561001057600080fd5b5033600160006101000a81548173ffffffffffffffffffffffffffffffffffffffff021916908373ffffffffffffffffffffffffffffffffffffffff1602179055506108f2806100616000396000f3fe6080604052600436106100295760003560e01c80631237ae4d1461002e578063f745199f14610057575b600080fd5b34801561003a57600080fd5b5061005560048036038101906100509190610540565b610073565b005b610071600480360381019061006c91906105bb565b610146565b005b600160009054906101000a900473ffffffffffffffffffffffffffffffffffffffff1673ffffffffffffffffffffffffffffffffffffffff163373ffffffffffffffffffffffffffffffffffffffff1614610103576040517f08c379a00000000000000000000000000000000000000000000000000000000081526004016100fa9061071a565b60405180910390fd5b806000806101000a81548173ffffffffffffffffffffffffffffffffffffffff021916908373ffffffffffffffffffffffffffffffffffffffff16021790555050565b60008060009054906101000a900473ffffffffffffffffffffffffffffffffffffffff1673ffffffffffffffffffffffffffffffffffffffff1663d2e18f32836040518263ffffffff1660e01b81526004016101a2919061073a565b60206040518083038186803b1580156101ba57600080fd5b505afa1580156101ce573d6000803e3d6000fd5b505050506040513d601f19601f820116820180604052508101906101f29190610592565b905060008060009054906101000a900473ffffffffffffffffffffffffffffffffffffffff1673ffffffffffffffffffffffffffffffffffffffff1663d05aa68b846040518263ffffffff1660e01b8152600401610250919061073a565b60206040518083038186803b15801561026857600080fd5b505afa15801561027c573d6000803e3d6000fd5b505050506040513d601f19601f820116820180604052508101906102a091906105e4565b9050600034905060006005826102b69190610766565b9050828210156102fb576040517f08c379a00000000000000000000000000000000000000000000000000000000081526004016102f2906106fa565b60405180910390fd5b8373ffffffffffffffffffffffffffffffffffffffff166108fc829081150290604051600060405180830381858888f19350505050158015610341573d6000803e3d6000fd5b5060008060009054906101000a900473ffffffffffffffffffffffffffffffffffffffff1673ffffffffffffffffffffffffffffffffffffffff16636352211e876040518263ffffffff1660e01b815260040161039e919061073a565b60206040518083038186803b1580156103b657600080fd5b505afa1580156103ca573d6000803e3d6000fd5b505050506040513d601f19601f820116820180604052508101906103ee9190610569565b90508073ffffffffffffffffffffffffffffffffffffffff166108fc83856104169190610797565b9081150290604051600060405180830381858888f19350505050158015610441573d6000803e3d6000fd5b5060008054906101000a900473ffffffffffffffffffffffffffffffffffffffff1673ffffffffffffffffffffffffffffffffffffffff16638b710ab033886040518363ffffffff1660e01b815260040161049d9291906106d1565b600060405180830381600087803b1580156104b757600080fd5b505af11580156104cb573d6000803e3d6000fd5b50505050505050505050565b6000813590506104e681610877565b92915050565b6000815190506104fb81610877565b92915050565b6000815190506105108161088e565b92915050565b600081359050610525816108a5565b92915050565b60008151905061053a816108a5565b92915050565b60006020828403121561055257600080fd5b6000610560848285016104d7565b91505092915050565b60006020828403121561057b57600080fd5b6000610589848285016104ec565b91505092915050565b6000602082840312156105a457600080fd5b60006105b284828501610501565b91505092915050565b6000602082840312156105cd57600080fd5b60006105db84828501610516565b91505092915050565b6000602082840312156105f657600080fd5b60006106048482850161052b565b91505092915050565b610616816107cb565b82525050565b6000610629601583610755565b91507f4e6f7420656e6f756768206d6f6e65792073656e7400000000000000000000006000830152602082019050919050565b6000610669603283610755565b91507f53746f726566726f6e74203a206f6e6c7920636f6e7472616374206f776e657260008301527f2063616e2073657420426f6f6b53746f726500000000000000000000000000006020830152604082019050919050565b6106cb8161080f565b82525050565b60006040820190506106e6600083018561060d565b6106f360208301846106c2565b9392505050565b600060208201905081810360008301526107138161061c565b9050919050565b600060208201905081810360008301526107338161065c565b9050919050565b600060208201905061074f60008301846106c2565b92915050565b600082825260208201905092915050565b60006107718261080f565b915061077c8361080f565b92508261078c5761078b610848565b5b828204905092915050565b60006107a28261080f565b91506107ad8361080f565b9250828210156107c0576107bf610819565b5b828203905092915050565b60006107d6826107ef565b9050919050565b60006107e8826107ef565b9050919050565b600073ffffffffffffffffffffffffffffffffffffffff82169050919050565b6000819050919050565b7f4e487b7100000000000000000000000000000000000000000000000000000000600052601160045260246000fd5b7f4e487b7100000000000000000000000000000000000000000000000000000000600052601260045260246000fd5b610880816107cb565b811461088b57600080fd5b50565b610897816107dd565b81146108a257600080fd5b50565b6108ae8161080f565b81146108b957600080fd5b5056fea2646970667358221220aa291004eec1a08a92e25bfbf68a51985e357ba92a5b390bece9c6d62a4e08d164736f6c63430008000033",
  "immutableReferences": {},
  "source": "// SPDX-License-Identifier: MIT\r\npragma solidity ^0.8.0;\r\n\r\nimport \"./BookStore.sol\";\r\nimport \"@openzeppelin/contracts/token/ERC20/ERC20.sol\";\r\n\r\ncontract StoreFront {\r\n    BookStore private _bookStore;\r\n\r\n    address private _owner;\r\n\r\n    constructor() {\r\n        _owner = msg.sender;\r\n    }\r\n    \r\n    function setBookStore(address _bookStoreAddress) public {\r\n        require(\r\n            msg.sender == _owner,\r\n            \"Storefront : only contract owner can set BookStore\"\r\n        );\r\n        _bookStore = BookStore(_bookStoreAddress);\r\n    }\r\n\r\n    function purchaseFromAuthor(uint256 _bookVersionId) public payable {\r\n        address payable author = _bookStore.bookVersionAuthor(_bookVersionId);\r\n        uint256 price = _bookStore.bookVersionPrice(_bookVersionId);\r\n        uint256 amount_recieved = msg.value;\r\n        uint256 author_profit = amount_recieved / 5;\r\n        require(amount_recieved >= price, \"Not enough money sent\");\r\n        author.transfer(author_profit);\r\n        address payable token_owner = payable(\r\n            _bookStore.ownerOf(_bookVersionId)\r\n        );\r\n        token_owner.transfer(amount_recieved - author_profit);\r\n        _bookStore.transferFromAuthor(msg.sender, _bookVersionId);\r\n    }\r\n}\r\n",
  "sourcePath": "D:\\project\\app\\contracts\\StoreFront.sol",
  "compiler": {
    "name": "solc",
    "version": "0.8.0+commit.c7dfd78e.Emscripten.clang"
  },
  "schemaVersion": "3.4.7",
  "updatedAt": "2022-05-12T07:56:14.562Z",
  "networkType": "ethereum",
  "devdoc": {
    "kind": "dev",
    "methods": {},
    "version": 1
  },
  "userdoc": {
    "kind": "user",
    "methods": {},
    "version": 1
  }
}